{
    "contractName": "IDOPool",
    "abi": [
        {
            "inputs": [
                {
                    "internalType": "address",
                    "name": "initialOwner",
                    "type": "address"
                },
                {
                    "components": [
                        {
                            "internalType": "contract IERC20",
                            "name": "rewardToken",
                            "type": "address"
                        },
                        {
                            "internalType": "uint256",
                            "name": "rewardTokenPrice",
                            "type": "uint256"
                        },
                        {
                            "internalType": "contract IERC20",
                            "name": "buyToken",
                            "type": "address"
                        },
                        {
                            "internalType": "uint256",
                            "name": "buyTokenSupply",
                            "type": "uint256"
                        },
                        {
                            "internalType": "uint256",
                            "name": "softCap",
                            "type": "uint256"
                        },
                        {
                            "internalType": "uint256",
                            "name": "hardCap",
                            "type": "uint256"
                        }
                    ],
                    "internalType": "struct IDOPool.TokenInfo",
                    "name": "_tokenInfo",
                    "type": "tuple"
                },
                {
                    "components": [
                        {
                            "internalType": "uint256",
                            "name": "startTimestamp",
                            "type": "uint256"
                        },
                        {
                            "internalType": "uint256",
                            "name": "endTimestamp",
                            "type": "uint256"
                        },
                        {
                            "internalType": "uint256",
                            "name": "claimTimestamp",
                            "type": "uint256"
                        }
                    ],
                    "internalType": "struct IDOPool.Timestamps",
                    "name": "_timestamps",
                    "type": "tuple"
                },
                {
                    "components": [
                        {
                            "internalType": "address",
                            "name": "router",
                            "type": "address"
                        },
                        {
                            "internalType": "address",
                            "name": "factory",
                            "type": "address"
                        }
                    ],
                    "internalType": "struct IDOPool.DEXInfo",
                    "name": "_dexInfo",
                    "type": "tuple"
                }
            ],
            "stateMutability": "nonpayable",
            "type": "constructor"
        },
        {
            "inputs": [
                {
                    "internalType": "address",
                    "name": "owner",
                    "type": "address"
                }
            ],
            "name": "OwnableInvalidOwner",
            "type": "error"
        },
        {
            "inputs": [
                {
                    "internalType": "address",
                    "name": "account",
                    "type": "address"
                }
            ],
            "name": "OwnableUnauthorizedAccount",
            "type": "error"
        },
        {
            "inputs": [
                {
                    "internalType": "address",
                    "name": "token",
                    "type": "address"
                }
            ],
            "name": "SafeERC20FailedOperation",
            "type": "error"
        },
        {
            "anonymous": false,
            "inputs": [
                {
                    "indexed": true,
                    "internalType": "address",
                    "name": "previousOwner",
                    "type": "address"
                },
                {
                    "indexed": true,
                    "internalType": "address",
                    "name": "newOwner",
                    "type": "address"
                }
            ],
            "name": "OwnershipTransferred",
            "type": "event"
        },
        {
            "anonymous": false,
            "inputs": [
                {
                    "indexed": true,
                    "internalType": "address",
                    "name": "holder",
                    "type": "address"
                },
                {
                    "indexed": false,
                    "internalType": "uint256",
                    "name": "amount",
                    "type": "uint256"
                }
            ],
            "name": "TokenClaim",
            "type": "event"
        },
        {
            "anonymous": false,
            "inputs": [
                {
                    "indexed": true,
                    "internalType": "address",
                    "name": "holder",
                    "type": "address"
                }
            ],
            "name": "TokenRefund",
            "type": "event"
        },
        {
            "anonymous": false,
            "inputs": [
                {
                    "indexed": true,
                    "internalType": "address",
                    "name": "holder",
                    "type": "address"
                },
                {
                    "indexed": false,
                    "internalType": "uint256",
                    "name": "amount",
                    "type": "uint256"
                }
            ],
            "name": "TokenStake",
            "type": "event"
        },
        {
            "inputs": [],
            "name": "claim",
            "outputs": [],
            "stateMutability": "nonpayable",
            "type": "function"
        },
        {
            "inputs": [],
            "name": "dexInfo",
            "outputs": [
                {
                    "internalType": "address",
                    "name": "router",
                    "type": "address"
                },
                {
                    "internalType": "address",
                    "name": "factory",
                    "type": "address"
                }
            ],
            "stateMutability": "view",
            "type": "function"
        },
        {
            "inputs": [],
            "name": "distributed",
            "outputs": [
                {
                    "internalType": "bool",
                    "name": "",
                    "type": "bool"
                }
            ],
            "stateMutability": "view",
            "type": "function"
        },
        {
            "inputs": [],
            "name": "owner",
            "outputs": [
                {
                    "internalType": "address",
                    "name": "",
                    "type": "address"
                }
            ],
            "stateMutability": "view",
            "type": "function"
        },
        {
            "inputs": [],
            "name": "refund",
            "outputs": [],
            "stateMutability": "nonpayable",
            "type": "function"
        },
        {
            "inputs": [],
            "name": "renounceOwnership",
            "outputs": [],
            "stateMutability": "nonpayable",
            "type": "function"
        },
        {
            "inputs": [
                {
                    "internalType": "uint256",
                    "name": "_hardCap",
                    "type": "uint256"
                }
            ],
            "name": "setHardCap",
            "outputs": [],
            "stateMutability": "nonpayable",
            "type": "function"
        },
        {
            "inputs": [
                {
                    "internalType": "uint256",
                    "name": "_softCap",
                    "type": "uint256"
                }
            ],
            "name": "setSoftCap",
            "outputs": [],
            "stateMutability": "nonpayable",
            "type": "function"
        },
        {
            "inputs": [
                {
                    "components": [
                        {
                            "internalType": "uint256",
                            "name": "startTimestamp",
                            "type": "uint256"
                        },
                        {
                            "internalType": "uint256",
                            "name": "endTimestamp",
                            "type": "uint256"
                        },
                        {
                            "internalType": "uint256",
                            "name": "claimTimestamp",
                            "type": "uint256"
                        }
                    ],
                    "internalType": "struct IDOPool.Timestamps",
                    "name": "_timestamp",
                    "type": "tuple"
                }
            ],
            "name": "setTimestamps",
            "outputs": [],
            "stateMutability": "nonpayable",
            "type": "function"
        },
        {
            "inputs": [
                {
                    "internalType": "uint256",
                    "name": "amount",
                    "type": "uint256"
                }
            ],
            "name": "stake",
            "outputs": [],
            "stateMutability": "nonpayable",
            "type": "function"
        },
        {
            "inputs": [],
            "name": "timestamps",
            "outputs": [
                {
                    "internalType": "uint256",
                    "name": "startTimestamp",
                    "type": "uint256"
                },
                {
                    "internalType": "uint256",
                    "name": "endTimestamp",
                    "type": "uint256"
                },
                {
                    "internalType": "uint256",
                    "name": "claimTimestamp",
                    "type": "uint256"
                }
            ],
            "stateMutability": "view",
            "type": "function"
        },
        {
            "inputs": [],
            "name": "tokenInfo",
            "outputs": [
                {
                    "internalType": "contract IERC20",
                    "name": "rewardToken",
                    "type": "address"
                },
                {
                    "internalType": "uint256",
                    "name": "rewardTokenPrice",
                    "type": "uint256"
                },
                {
                    "internalType": "contract IERC20",
                    "name": "buyToken",
                    "type": "address"
                },
                {
                    "internalType": "uint256",
                    "name": "buyTokenSupply",
                    "type": "uint256"
                },
                {
                    "internalType": "uint256",
                    "name": "softCap",
                    "type": "uint256"
                },
                {
                    "internalType": "uint256",
                    "name": "hardCap",
                    "type": "uint256"
                }
            ],
            "stateMutability": "view",
            "type": "function"
        },
        {
            "inputs": [
                {
                    "internalType": "address",
                    "name": "newOwner",
                    "type": "address"
                }
            ],
            "name": "transferOwnership",
            "outputs": [],
            "stateMutability": "nonpayable",
            "type": "function"
        },
        {
            "inputs": [
                {
                    "internalType": "address",
                    "name": "",
                    "type": "address"
                }
            ],
            "name": "userInfo",
            "outputs": [
                {
                    "internalType": "uint256",
                    "name": "stakedAmount",
                    "type": "uint256"
                },
                {
                    "internalType": "uint256",
                    "name": "claimedAmount",
                    "type": "uint256"
                },
                {
                    "internalType": "bool",
                    "name": "hasClaimed",
                    "type": "bool"
                }
            ],
            "stateMutability": "view",
            "type": "function"
        },
        {
            "inputs": [],
            "name": "withdraw",
            "outputs": [],
            "stateMutability": "nonpayable",
            "type": "function"
        }
    ],
    "bytecode": "6080604052346103bf57604051610f8138819003601f8101601f191683016001600160401b038111848210176103ab578392829160405283398101039061018082126103bf5761004e816103c3565b9060c0601f198401126103bf5760405160c081016001600160401b038111828210176103ab57604052610083602083016103c3565b81526040820151926020820193845261009e606084016103c3565b926040830193845260808101516060840190815260a08201516080850190815260c08301519160a08601928352606060df198a01126103bf5760405196606088016001600160401b038111898210176103ab5760405260e085015188526101008501519860208901998a5260406101208701519b818b019c8d5261013f1901126103bf5760408051969087016001600160401b038111888210176103ab5761015c916101609160405261015461014082016103c3565b8952016103c3565b602087019081526001600160a01b03909716978815610398575f80546040519a9182906001600160a01b038316907f8be0079c531659141344cd1fd0a4f28419497f9722a3daafe3b4186f6b6457e09080a36001600160a81b03191681175f559051600180546001600160a01b03199081166001600160a01b0393841617909155925160025592516003805484169185169190911790559251600455925160055592516006559251600a805483169184169190911790559251600b80549094169082161790925516330361038557815142101561031d57508051825111156102c05781518351111561026357516007555160085551600955604051610ba990816103d88239f35b60405162461bcd60e51b815260206004820152602f60248201527f456e642074696d657374616d70206d757374206265206c657373207468616e2060448201526e0636c61696d2074696d657374616d7608c1b6064820152608490fd5b60405162461bcd60e51b815260206004820152602f60248201527f53746172742074696d657374616d70206d757374206265206c6573732074686160448201526e06e20656e642074696d657374616d7608c1b6064820152608490fd5b62461bcd60e51b815260206004820152603360248201527f53746172742074696d657374616d70206d757374206265206d6f72652074686160448201527f6e2063757272656e742074696d657374616d70000000000000000000000000006064820152608490fd5b63118cdaa760e01b5f523360045260245ffd5b631e4fbdf760e01b5f525f60045260245ffd5b634e487b7160e01b5f52604160045260245ffd5b5f80fd5b51906001600160a01b03821682036103bf5756fe6080806040526004361015610012575f80fd5b5f3560e01c9081631959a0021461095d575080633ccfd60b14610846578063491447a8146108185780634e71d92d14610702578063590e1ae31461061f5780636addb663146105c8578063715018a61461057157806374a8baef146103c95780638da5cb5b146103a2578063a694fc3a146101d6578063d18d944b146101bd578063d5cf5c72146101a4578063d8d2a56d14610172578063f2fde38b146100e95763f84b903e146100c1575f80fd5b346100e5575f3660031901126100e557602060ff5f5460a01c166040519015158152f35b5f80fd5b346100e55760203660031901126100e5576004356001600160a01b038116908190036100e557610117610ab7565b801561015f575f80546001600160a01b03198116831782556001600160a01b0316907f8be0079c531659141344cd1fd0a4f28419497f9722a3daafe3b4186f6b6457e09080a3005b631e4fbdf760e01b5f525f60045260245ffd5b346100e5575f3660031901126100e557600a54600b54604080516001600160a01b039384168152919092166020820152f35b346100e55760203660031901126100e557600435600555005b346100e55760203660031901126100e557600435600655005b346100e55760203660031901126100e55760043560075442106103675760085442101561032a5761020960045482610aaa565b600654106102f85780156102b4576003546040516323b872dd60e01b60208201523360248201523060448201526064808201849052815261025d916001600160a01b03166102586084836109b3565b610b1b565b335f52600c602052600260405f208281550160ff19815416905561028381600454610aaa565b6004556040519081527facf5378a9125b9a91e37c0cad37a66b4b63bc3494776388fc87056260e03157660203392a2005b606460405162461bcd60e51b815260206004820152602060248201527f416d6f756e74206d7573742062652067726561746572207468616e207a65726f6044820152fd5b60405162461bcd60e51b815260206004820152600a60248201526913dd995c999a5b1b195960b21b6044820152606490fd5b60405162461bcd60e51b8152602060048201526015602482015274141c9bda9958dd08185b1c9958591e48195b991959605a1b6044820152606490fd5b60405162461bcd60e51b8152602060048201526013602482015272141c9bda9958dd081b9bdd081cdd185c9d1959606a1b6044820152606490fd5b346100e5575f3660031901126100e5575f546040516001600160a01b039091168152602090f35b346100e55760603660031901126100e5576040516060810181811067ffffffffffffffff82111761055d57604052600435815260208101602435815260408201916044358352610417610ab7565b80514210156104fc5780518251111561049f5781518351111561044257516007555160085551600955005b60405162461bcd60e51b815260206004820152602f60248201527f456e642074696d657374616d70206d757374206265206c657373207468616e2060448201526e0636c61696d2074696d657374616d7608c1b6064820152608490fd5b60405162461bcd60e51b815260206004820152602f60248201527f53746172742074696d657374616d70206d757374206265206c6573732074686160448201526e06e20656e642074696d657374616d7608c1b6064820152608490fd5b60405162461bcd60e51b815260206004820152603360248201527f53746172742074696d657374616d70206d757374206265206d6f72652074686160448201527206e2063757272656e742074696d657374616d7606c1b6064820152608490fd5b634e487b7160e01b5f52604160045260245ffd5b346100e5575f3660031901126100e557610589610ab7565b5f80546001600160a01b0319811682556001600160a01b03167f8be0079c531659141344cd1fd0a4f28419497f9722a3daafe3b4186f6b6457e08280a3005b346100e5575f3660031901126100e55760c060018060a01b036001541660025460018060a01b03600354166004546005549160065493604051958652602086015260408501526060840152608083015260a0820152f35b346100e5575f3660031901126100e55761063d6008544210156109d5565b60045460055411156106c857335f52600c60205260405f206106788154610665811515610a5e565b60035433906001600160a01b0316610add565b60045490805482039182116106b4575f9160045555337f20b4fae6e10a69b2482a1a4230a571ca352454890034733f783c63edf795c37f5f80a2005b634e487b7160e01b5f52601160045260245ffd5b60405162461bcd60e51b8152602060048201526012602482015271141c9bda9958dd081a5cc81cdd58d8d9595960721b6044820152606490fd5b346100e5575f3660031901126100e55760095442106107db5761072b6004546005541115610a19565b335f52600c60205260405f20805480156107458115610a5e565b670de0b6b3a76400008202918204670de0b6b3a76400001417156106b45760025480156107c75761079891046002600184019382855501600160ff198254161790553360018060a01b0360015416610add565b546040519081527ffcd6a0cf5a625280133c034863698c011fa0aefbee7f3be397f86fabd989185260203392a2005b634e487b7160e01b5f52601260045260245ffd5b60405162461bcd60e51b815260206004820152601560248201527450726f6a656374206e6f7420636c61696d61626c6560581b6044820152606490fd5b346100e5575f3660031901126100e55760606007546008546009549060405192835260208301526040820152f35b346100e5575f3660031901126100e55761085e610ab7565b61086c6008544210156109d5565b60045461087d600554821015610a19565b5f5460ff8160a01c166109225760035460405163a9059cbb60e01b81526001600160a01b0392831660048201526024810193909352602091839160449183915f91165af18015610917576108e0575b5f805460ff60a01b1916600160a01b179055005b6020813d60201161090f575b816108f9602093836109b3565b810103126100e5575180151581146108cc575f80fd5b3d91506108ec565b6040513d5f823e3d90fd5b60405162461bcd60e51b8152602060048201526013602482015272105b1c9958591e48191a5cdd1c9a589d5d1959606a1b6044820152606490fd5b346100e55760203660031901126100e5576004356001600160a01b03811691908290036100e5576060915f52600c60205260405f2080549060ff6002600183015492015416918352602083015215156040820152f35b90601f8019910116810190811067ffffffffffffffff82111761055d57604052565b156109dc57565b60405162461bcd60e51b8152602060048201526015602482015274141c9bda9958dd081b9bdd08195b991959081e595d605a1b6044820152606490fd5b15610a2057565b60405162461bcd60e51b8152602060048201526016602482015275141c9bda9958dd081a5cc81b9bdd081cdd58d8d9595960521b6044820152606490fd5b15610a6557565b60405162461bcd60e51b815260206004820152601960248201527f596f752068617665206e6f207374616b656420616d6f756e74000000000000006044820152606490fd5b919082018092116106b457565b5f546001600160a01b03163303610aca57565b63118cdaa760e01b5f523360045260245ffd5b60405163a9059cbb60e01b60208201526001600160a01b03929092166024830152604480830193909352918152610b19916102586064836109b3565b565b905f602091828151910182855af115610917575f513d610b6a57506001600160a01b0381163b155b610b4a5750565b635274afe760e01b5f9081526001600160a01b0391909116600452602490fd5b60011415610b4356fea2646970667358221220adb40cc8aeab6ce73fe4923c606c8f5e9c939ad661eb53b74662f603e21301d664736f6c634300081c0033",
    "sourcePath": "d:/3.Study/LaunchPad/projects/solidity-backend/contracts/IDOPool.sol",
    "compiler": {
        "name": "solc",
        "version": "0.8.28+commit.7893614a"
    },
    "functionHashes": {
        "claim()": "4e71d92d",
        "dexInfo()": "d8d2a56d",
        "distributed()": "f84b903e",
        "owner()": "8da5cb5b",
        "refund()": "590e1ae3",
        "renounceOwnership()": "715018a6",
        "setHardCap(uint256)": "d18d944b",
        "setSoftCap(uint256)": "d5cf5c72",
        "setTimestamps((uint256,uint256,uint256))": "74a8baef",
        "stake(uint256)": "a694fc3a",
        "timestamps()": "491447a8",
        "tokenInfo()": "6addb663",
        "transferOwnership(address)": "f2fde38b",
        "userInfo(address)": "1959a002",
        "withdraw()": "3ccfd60b"
    },
    "gasEstimates": {
        "creation": {
            "codeDepositCost": "597000",
            "executionCost": "infinite",
            "totalCost": "infinite"
        },
        "external": {
            "claim()": "infinite",
            "dexInfo()": "4671",
            "distributed()": "2578",
            "owner()": "2455",
            "refund()": "infinite",
            "renounceOwnership()": "28182",
            "setHardCap(uint256)": "22459",
            "setSoftCap(uint256)": "22481",
            "setTimestamps((uint256,uint256,uint256))": "68977",
            "stake(uint256)": "infinite",
            "timestamps()": "6539",
            "tokenInfo()": "12998",
            "transferOwnership(address)": "28417",
            "userInfo(address)": "6631",
            "withdraw()": "infinite"
        }
    }
}